{
  "_format": "hh-sol-artifact-1",
  "contractName": "BrowniePoints",
  "sourceName": "contracts/brownie.sol",
  "abi": [
    {
      "inputs": [],
      "stateMutability": "nonpayable",
      "type": "constructor"
    },
    {
      "inputs": [
        {
          "components": [
            {
              "internalType": "string",
              "name": "header",
              "type": "string"
            },
            {
              "internalType": "string",
              "name": "keyword",
              "type": "string"
            },
            {
              "internalType": "uint256",
              "name": "x",
              "type": "uint256"
            },
            {
              "internalType": "uint256",
              "name": "y",
              "type": "uint256"
            },
            {
              "internalType": "bytes",
              "name": "intent",
              "type": "bytes"
            }
          ],
          "internalType": "struct BrowniePoints.brownie[]",
          "name": "brownies",
          "type": "tuple[]"
        },
        {
          "internalType": "string",
          "name": "uri",
          "type": "string"
        },
        {
          "internalType": "uint256",
          "name": "id",
          "type": "uint256"
        }
      ],
      "name": "createBrownies",
      "outputs": [],
      "stateMutability": "payable",
      "type": "function"
    },
    {
      "inputs": [
        {
          "internalType": "string",
          "name": "_uri",
          "type": "string"
        },
        {
          "internalType": "uint256",
          "name": "_id",
          "type": "uint256"
        }
      ],
      "name": "createOrganisation",
      "outputs": [],
      "stateMutability": "payable",
      "type": "function"
    }
  ],
  "bytecode": "0x608060405234801561001057600080fd5b506001600081905550610de3806100286000396000f3fe6080604052600436106100295760003560e01c8063a2756b2a1461002e578063c5802e3a1461004a575b600080fd5b6100486004803603810190610043919061074e565b610066565b005b610064600480360381019061005f91906107d9565b610204565b005b61006e6102f4565b6000600360003373ffffffffffffffffffffffffffffffffffffffff1673ffffffffffffffffffffffffffffffffffffffff16815260200190815260200160002054905060008451905060005b818110156101a5578581815181106100d6576100d5610835565b5b6020026020010151600160003373ffffffffffffffffffffffffffffffffffffffff1673ffffffffffffffffffffffffffffffffffffffff1681526020019081526020016000206000838661012b9190610893565b8152602001908152602001600020600082015181600001908161014e9190610ade565b5060208201518160010190816101649190610ade565b506040820151816002015560608201518160030155608082015181600401908161018e9190610c16565b50905050808061019d90610ce8565b9150506100bb565b5080826101b29190610893565b600360003373ffffffffffffffffffffffffffffffffffffffff1673ffffffffffffffffffffffffffffffffffffffff1681526020019081526020016000208190555050506101ff610343565b505050565b61020c6102f4565b81600260003373ffffffffffffffffffffffffffffffffffffffff1673ffffffffffffffffffffffffffffffffffffffff168152602001908152602001600020600101908161025b9190610ade565b5080600260003373ffffffffffffffffffffffffffffffffffffffff1673ffffffffffffffffffffffffffffffffffffffff168152602001908152602001600020600001819055506000600360003373ffffffffffffffffffffffffffffffffffffffff1673ffffffffffffffffffffffffffffffffffffffff168152602001908152602001600020819055506102f0610343565b5050565b600260005403610339576040517f08c379a000000000000000000000000000000000000000000000000000000000815260040161033090610d8d565b60405180910390fd5b6002600081905550565b6001600081905550565b6000604051905090565b600080fd5b600080fd5b600080fd5b6000601f19601f8301169050919050565b7f4e487b7100000000000000000000000000000000000000000000000000000000600052604160045260246000fd5b6103af82610366565b810181811067ffffffffffffffff821117156103ce576103cd610377565b5b80604052505050565b60006103e161034d565b90506103ed82826103a6565b919050565b600067ffffffffffffffff82111561040d5761040c610377565b5b602082029050602081019050919050565b600080fd5b600080fd5b600080fd5b600080fd5b600067ffffffffffffffff82111561044d5761044c610377565b5b61045682610366565b9050602081019050919050565b82818337600083830152505050565b600061048561048084610432565b6103d7565b9050828152602081018484840111156104a1576104a061042d565b5b6104ac848285610463565b509392505050565b600082601f8301126104c9576104c8610361565b5b81356104d9848260208601610472565b91505092915050565b6000819050919050565b6104f5816104e2565b811461050057600080fd5b50565b600081359050610512816104ec565b92915050565b600067ffffffffffffffff82111561053357610532610377565b5b61053c82610366565b9050602081019050919050565b600061055c61055784610518565b6103d7565b9050828152602081018484840111156105785761057761042d565b5b610583848285610463565b509392505050565b600082601f8301126105a05761059f610361565b5b81356105b0848260208601610549565b91505092915050565b600060a082840312156105cf576105ce610423565b5b6105d960a06103d7565b9050600082013567ffffffffffffffff8111156105f9576105f8610428565b5b610605848285016104b4565b600083015250602082013567ffffffffffffffff81111561062957610628610428565b5b610635848285016104b4565b602083015250604061064984828501610503565b604083015250606061065d84828501610503565b606083015250608082013567ffffffffffffffff81111561068157610680610428565b5b61068d8482850161058b565b60808301525092915050565b60006106ac6106a7846103f2565b6103d7565b905080838252602082019050602084028301858111156106cf576106ce61041e565b5b835b8181101561071657803567ffffffffffffffff8111156106f4576106f3610361565b5b80860161070189826105b9565b855260208501945050506020810190506106d1565b5050509392505050565b600082601f83011261073557610734610361565b5b8135610745848260208601610699565b91505092915050565b60008060006060848603121561076757610766610357565b5b600084013567ffffffffffffffff8111156107855761078461035c565b5b61079186828701610720565b935050602084013567ffffffffffffffff8111156107b2576107b161035c565b5b6107be868287016104b4565b92505060406107cf86828701610503565b9150509250925092565b600080604083850312156107f0576107ef610357565b5b600083013567ffffffffffffffff81111561080e5761080d61035c565b5b61081a858286016104b4565b925050602061082b85828601610503565b9150509250929050565b7f4e487b7100000000000000000000000000000000000000000000000000000000600052603260045260246000fd5b7f4e487b7100000000000000000000000000000000000000000000000000000000600052601160045260246000fd5b600061089e826104e2565b91506108a9836104e2565b92508282019050808211156108c1576108c0610864565b5b92915050565b600081519050919050565b7f4e487b7100000000000000000000000000000000000000000000000000000000600052602260045260246000fd5b6000600282049050600182168061091957607f821691505b60208210810361092c5761092b6108d2565b5b50919050565b60008190508160005260206000209050919050565b60006020601f8301049050919050565b600082821b905092915050565b6000600883026109947fffffffffffffffffffffffffffffffffffffffffffffffffffffffffffffffff82610957565b61099e8683610957565b95508019841693508086168417925050509392505050565b6000819050919050565b60006109db6109d66109d1846104e2565b6109b6565b6104e2565b9050919050565b6000819050919050565b6109f5836109c0565b610a09610a01826109e2565b848454610964565b825550505050565b600090565b610a1e610a11565b610a298184846109ec565b505050565b5b81811015610a4d57610a42600082610a16565b600181019050610a2f565b5050565b601f821115610a9257610a6381610932565b610a6c84610947565b81016020851015610a7b578190505b610a8f610a8785610947565b830182610a2e565b50505b505050565b600082821c905092915050565b6000610ab560001984600802610a97565b1980831691505092915050565b6000610ace8383610aa4565b9150826002028217905092915050565b610ae7826108c7565b67ffffffffffffffff811115610b0057610aff610377565b5b610b0a8254610901565b610b15828285610a51565b600060209050601f831160018114610b485760008415610b36578287015190505b610b408582610ac2565b865550610ba8565b601f198416610b5686610932565b60005b82811015610b7e57848901518255600182019150602085019450602081019050610b59565b86831015610b9b5784890151610b97601f891682610aa4565b8355505b6001600288020188555050505b505050505050565b600081519050919050565b60008190508160005260206000209050919050565b601f821115610c1157610be281610bbb565b610beb84610947565b81016020851015610bfa578190505b610c0e610c0685610947565b830182610a2e565b50505b505050565b610c1f82610bb0565b67ffffffffffffffff811115610c3857610c37610377565b5b610c428254610901565b610c4d828285610bd0565b600060209050601f831160018114610c805760008415610c6e578287015190505b610c788582610ac2565b865550610ce0565b601f198416610c8e86610bbb565b60005b82811015610cb657848901518255600182019150602085019450602081019050610c91565b86831015610cd35784890151610ccf601f891682610aa4565b8355505b6001600288020188555050505b505050505050565b6000610cf3826104e2565b91507fffffffffffffffffffffffffffffffffffffffffffffffffffffffffffffffff8203610d2557610d24610864565b5b600182019050919050565b600082825260208201905092915050565b7f5265656e7472616e637947756172643a207265656e7472616e742063616c6c00600082015250565b6000610d77601f83610d30565b9150610d8282610d41565b602082019050919050565b60006020820190508181036000830152610da681610d6a565b905091905056fea264697066735822122046ebdc098f7cbfc9ef097b8d2019d84c08f75ab1b586c522a001dce72e9e6ae664736f6c63430008110033",
  "linkReferences": {},
  "deployedLinkReferences": {}
}