{
  "_format": "hh-sol-artifact-1",
  "contractName": "Token",
  "sourceName": "contracts/token.sol",
  "abi": [
    {
      "inputs": [
        {
          "internalType": "string",
          "name": "_name",
          "type": "string"
        },
        {
          "internalType": "string",
          "name": "_symbol",
          "type": "string"
        }
      ],
      "stateMutability": "nonpayable",
      "type": "constructor"
    },
    {
      "anonymous": false,
      "inputs": [
        {
          "indexed": true,
          "internalType": "address",
          "name": "owner",
          "type": "address"
        },
        {
          "indexed": true,
          "internalType": "address",
          "name": "spender",
          "type": "address"
        },
        {
          "indexed": false,
          "internalType": "uint256",
          "name": "value",
          "type": "uint256"
        }
      ],
      "name": "Approval",
      "type": "event"
    },
    {
      "anonymous": false,
      "inputs": [
        {
          "indexed": true,
          "internalType": "bytes32",
          "name": "role",
          "type": "bytes32"
        },
        {
          "indexed": true,
          "internalType": "bytes32",
          "name": "previousAdminRole",
          "type": "bytes32"
        },
        {
          "indexed": true,
          "internalType": "bytes32",
          "name": "newAdminRole",
          "type": "bytes32"
        }
      ],
      "name": "RoleAdminChanged",
      "type": "event"
    },
    {
      "anonymous": false,
      "inputs": [
        {
          "indexed": true,
          "internalType": "bytes32",
          "name": "role",
          "type": "bytes32"
        },
        {
          "indexed": true,
          "internalType": "address",
          "name": "account",
          "type": "address"
        },
        {
          "indexed": true,
          "internalType": "address",
          "name": "sender",
          "type": "address"
        }
      ],
      "name": "RoleGranted",
      "type": "event"
    },
    {
      "anonymous": false,
      "inputs": [
        {
          "indexed": true,
          "internalType": "bytes32",
          "name": "role",
          "type": "bytes32"
        },
        {
          "indexed": true,
          "internalType": "address",
          "name": "account",
          "type": "address"
        },
        {
          "indexed": true,
          "internalType": "address",
          "name": "sender",
          "type": "address"
        }
      ],
      "name": "RoleRevoked",
      "type": "event"
    },
    {
      "anonymous": false,
      "inputs": [
        {
          "indexed": true,
          "internalType": "address",
          "name": "from",
          "type": "address"
        },
        {
          "indexed": true,
          "internalType": "address",
          "name": "to",
          "type": "address"
        },
        {
          "indexed": false,
          "internalType": "uint256",
          "name": "value",
          "type": "uint256"
        }
      ],
      "name": "Transfer",
      "type": "event"
    },
    {
      "inputs": [],
      "name": "ADMIN",
      "outputs": [
        {
          "internalType": "bytes32",
          "name": "",
          "type": "bytes32"
        }
      ],
      "stateMutability": "view",
      "type": "function"
    },
    {
      "inputs": [],
      "name": "BURNER",
      "outputs": [
        {
          "internalType": "bytes32",
          "name": "",
          "type": "bytes32"
        }
      ],
      "stateMutability": "view",
      "type": "function"
    },
    {
      "inputs": [],
      "name": "DEFAULT_ADMIN_ROLE",
      "outputs": [
        {
          "internalType": "bytes32",
          "name": "",
          "type": "bytes32"
        }
      ],
      "stateMutability": "view",
      "type": "function"
    },
    {
      "inputs": [],
      "name": "MINTER",
      "outputs": [
        {
          "internalType": "bytes32",
          "name": "",
          "type": "bytes32"
        }
      ],
      "stateMutability": "view",
      "type": "function"
    },
    {
      "inputs": [
        {
          "internalType": "address",
          "name": "owner",
          "type": "address"
        },
        {
          "internalType": "address",
          "name": "spender",
          "type": "address"
        }
      ],
      "name": "allowance",
      "outputs": [
        {
          "internalType": "uint256",
          "name": "",
          "type": "uint256"
        }
      ],
      "stateMutability": "view",
      "type": "function"
    },
    {
      "inputs": [
        {
          "internalType": "address",
          "name": "spender",
          "type": "address"
        },
        {
          "internalType": "uint256",
          "name": "amount",
          "type": "uint256"
        }
      ],
      "name": "approve",
      "outputs": [
        {
          "internalType": "bool",
          "name": "",
          "type": "bool"
        }
      ],
      "stateMutability": "nonpayable",
      "type": "function"
    },
    {
      "inputs": [
        {
          "internalType": "address",
          "name": "account",
          "type": "address"
        }
      ],
      "name": "balanceOf",
      "outputs": [
        {
          "internalType": "uint256",
          "name": "",
          "type": "uint256"
        }
      ],
      "stateMutability": "view",
      "type": "function"
    },
    {
      "inputs": [
        {
          "internalType": "address",
          "name": "",
          "type": "address"
        }
      ],
      "name": "balances",
      "outputs": [
        {
          "internalType": "uint256",
          "name": "",
          "type": "uint256"
        }
      ],
      "stateMutability": "view",
      "type": "function"
    },
    {
      "inputs": [
        {
          "internalType": "address",
          "name": "_from",
          "type": "address"
        },
        {
          "internalType": "uint256",
          "name": "_value",
          "type": "uint256"
        }
      ],
      "name": "burn",
      "outputs": [],
      "stateMutability": "nonpayable",
      "type": "function"
    },
    {
      "inputs": [],
      "name": "decimals",
      "outputs": [
        {
          "internalType": "uint8",
          "name": "",
          "type": "uint8"
        }
      ],
      "stateMutability": "view",
      "type": "function"
    },
    {
      "inputs": [
        {
          "internalType": "address",
          "name": "spender",
          "type": "address"
        },
        {
          "internalType": "uint256",
          "name": "subtractedValue",
          "type": "uint256"
        }
      ],
      "name": "decreaseAllowance",
      "outputs": [
        {
          "internalType": "bool",
          "name": "",
          "type": "bool"
        }
      ],
      "stateMutability": "nonpayable",
      "type": "function"
    },
    {
      "inputs": [
        {
          "internalType": "bytes32",
          "name": "role",
          "type": "bytes32"
        }
      ],
      "name": "getRoleAdmin",
      "outputs": [
        {
          "internalType": "bytes32",
          "name": "",
          "type": "bytes32"
        }
      ],
      "stateMutability": "view",
      "type": "function"
    },
    {
      "inputs": [
        {
          "internalType": "bytes32",
          "name": "role",
          "type": "bytes32"
        },
        {
          "internalType": "address",
          "name": "account",
          "type": "address"
        }
      ],
      "name": "grantRole",
      "outputs": [],
      "stateMutability": "nonpayable",
      "type": "function"
    },
    {
      "inputs": [
        {
          "internalType": "bytes32",
          "name": "role",
          "type": "bytes32"
        },
        {
          "internalType": "address",
          "name": "account",
          "type": "address"
        }
      ],
      "name": "hasRole",
      "outputs": [
        {
          "internalType": "bool",
          "name": "",
          "type": "bool"
        }
      ],
      "stateMutability": "view",
      "type": "function"
    },
    {
      "inputs": [
        {
          "internalType": "address",
          "name": "spender",
          "type": "address"
        },
        {
          "internalType": "uint256",
          "name": "addedValue",
          "type": "uint256"
        }
      ],
      "name": "increaseAllowance",
      "outputs": [
        {
          "internalType": "bool",
          "name": "",
          "type": "bool"
        }
      ],
      "stateMutability": "nonpayable",
      "type": "function"
    },
    {
      "inputs": [
        {
          "internalType": "address",
          "name": "_to",
          "type": "address"
        },
        {
          "internalType": "uint256",
          "name": "_value",
          "type": "uint256"
        }
      ],
      "name": "mint",
      "outputs": [],
      "stateMutability": "nonpayable",
      "type": "function"
    },
    {
      "inputs": [],
      "name": "name",
      "outputs": [
        {
          "internalType": "string",
          "name": "",
          "type": "string"
        }
      ],
      "stateMutability": "view",
      "type": "function"
    },
    {
      "inputs": [
        {
          "internalType": "bytes32",
          "name": "role",
          "type": "bytes32"
        },
        {
          "internalType": "address",
          "name": "account",
          "type": "address"
        }
      ],
      "name": "renounceRole",
      "outputs": [],
      "stateMutability": "nonpayable",
      "type": "function"
    },
    {
      "inputs": [
        {
          "internalType": "bytes32",
          "name": "role",
          "type": "bytes32"
        },
        {
          "internalType": "address",
          "name": "account",
          "type": "address"
        }
      ],
      "name": "revokeRole",
      "outputs": [],
      "stateMutability": "nonpayable",
      "type": "function"
    },
    {
      "inputs": [
        {
          "internalType": "bytes4",
          "name": "interfaceId",
          "type": "bytes4"
        }
      ],
      "name": "supportsInterface",
      "outputs": [
        {
          "internalType": "bool",
          "name": "",
          "type": "bool"
        }
      ],
      "stateMutability": "view",
      "type": "function"
    },
    {
      "inputs": [],
      "name": "symbol",
      "outputs": [
        {
          "internalType": "string",
          "name": "",
          "type": "string"
        }
      ],
      "stateMutability": "view",
      "type": "function"
    },
    {
      "inputs": [],
      "name": "totalSupply",
      "outputs": [
        {
          "internalType": "uint256",
          "name": "",
          "type": "uint256"
        }
      ],
      "stateMutability": "view",
      "type": "function"
    },
    {
      "inputs": [
        {
          "internalType": "address",
          "name": "to",
          "type": "address"
        },
        {
          "internalType": "uint256",
          "name": "amount",
          "type": "uint256"
        }
      ],
      "name": "transfer",
      "outputs": [
        {
          "internalType": "bool",
          "name": "",
          "type": "bool"
        }
      ],
      "stateMutability": "nonpayable",
      "type": "function"
    },
    {
      "inputs": [
        {
          "internalType": "address",
          "name": "from",
          "type": "address"
        },
        {
          "internalType": "address",
          "name": "to",
          "type": "address"
        },
        {
          "internalType": "uint256",
          "name": "amount",
          "type": "uint256"
        }
      ],
      "name": "transferFrom",
      "outputs": [
        {
          "internalType": "bool",
          "name": "",
          "type": "bool"
        }
      ],
      "stateMutability": "nonpayable",
      "type": "function"
    },
    {
      "inputs": [
        {
          "internalType": "address",
          "name": "_to",
          "type": "address"
        },
        {
          "internalType": "uint256",
          "name": "_penalty",
          "type": "uint256"
        }
      ],
      "name": "violateIntent",
      "outputs": [],
      "stateMutability": "nonpayable",
      "type": "function"
    }
  ],
  "bytecode": "0x60806040523480156200001157600080fd5b506040516200348b3803806200348b833981810160405281019062000037919062000691565b818181600390816200004a919062000961565b5080600490816200005c919062000961565b505050620000a133620000746200017f60201b60201c565b60ff16600a62000085919062000bcb565b6298968062000095919062000c1c565b6200018860201b60201c565b620000d37fdf8b4c520ffe197c5343c6f5aec59570151ef9a492f2c624fd45ddde6135ec4233620002f560201b60201c565b620001257ff0887ba65ee2024ea881d91b74c2450ef19e1557f03bed3ea9f16b037cbe2dc97fdf8b4c520ffe197c5343c6f5aec59570151ef9a492f2c624fd45ddde6135ec426200030b60201b60201c565b620001777f9667e80708b6eeeb0053fa0cca44e028ff548e2a9f029edfeac87c118b08b7c87fdf8b4c520ffe197c5343c6f5aec59570151ef9a492f2c624fd45ddde6135ec426200030b60201b60201c565b505062000d53565b60006012905090565b600073ffffffffffffffffffffffffffffffffffffffff168273ffffffffffffffffffffffffffffffffffffffff1603620001fa576040517f08c379a0000000000000000000000000000000000000000000000000000000008152600401620001f19062000cc8565b60405180910390fd5b6200020e600083836200036f60201b60201c565b806002600082825462000222919062000cea565b92505081905550806000808473ffffffffffffffffffffffffffffffffffffffff1673ffffffffffffffffffffffffffffffffffffffff168152602001908152602001600020600082825401925050819055508173ffffffffffffffffffffffffffffffffffffffff16600073ffffffffffffffffffffffffffffffffffffffff167fddf252ad1be2c89b69c2b068fc378daa952ba7f163c4a11628f55a4df523b3ef83604051620002d5919062000d36565b60405180910390a3620002f1600083836200037460201b60201c565b5050565b6200030782826200037960201b60201c565b5050565b60006200031e836200046b60201b60201c565b90508160056000858152602001908152602001600020600101819055508181847fbd79b86ffe0ab8e8776151514217cd7cacd52c909f66475c3af44e129f0b00ff60405160405180910390a4505050565b505050565b505050565b6200038b82826200048b60201b60201c565b620004675760016005600084815260200190815260200160002060000160008373ffffffffffffffffffffffffffffffffffffffff1673ffffffffffffffffffffffffffffffffffffffff16815260200190815260200160002060006101000a81548160ff0219169083151502179055506200040c620004f660201b60201c565b73ffffffffffffffffffffffffffffffffffffffff168173ffffffffffffffffffffffffffffffffffffffff16837f2f8788117e7eff1d82e926ec794901d17c78024a50270940304540a733656f0d60405160405180910390a45b5050565b600060056000838152602001908152602001600020600101549050919050565b60006005600084815260200190815260200160002060000160008373ffffffffffffffffffffffffffffffffffffffff1673ffffffffffffffffffffffffffffffffffffffff16815260200190815260200160002060009054906101000a900460ff16905092915050565b600033905090565b6000604051905090565b600080fd5b600080fd5b600080fd5b600080fd5b6000601f19601f8301169050919050565b7f4e487b7100000000000000000000000000000000000000000000000000000000600052604160045260246000fd5b62000567826200051c565b810181811067ffffffffffffffff821117156200058957620005886200052d565b5b80604052505050565b60006200059e620004fe565b9050620005ac82826200055c565b919050565b600067ffffffffffffffff821115620005cf57620005ce6200052d565b5b620005da826200051c565b9050602081019050919050565b60005b8381101562000607578082015181840152602081019050620005ea565b60008484015250505050565b60006200062a6200062484620005b1565b62000592565b90508281526020810184848401111562000649576200064862000517565b5b62000656848285620005e7565b509392505050565b600082601f83011262000676576200067562000512565b5b81516200068884826020860162000613565b91505092915050565b60008060408385031215620006ab57620006aa62000508565b5b600083015167ffffffffffffffff811115620006cc57620006cb6200050d565b5b620006da858286016200065e565b925050602083015167ffffffffffffffff811115620006fe57620006fd6200050d565b5b6200070c858286016200065e565b9150509250929050565b600081519050919050565b7f4e487b7100000000000000000000000000000000000000000000000000000000600052602260045260246000fd5b600060028204905060018216806200076957607f821691505b6020821081036200077f576200077e62000721565b5b50919050565b60008190508160005260206000209050919050565b60006020601f8301049050919050565b600082821b905092915050565b600060088302620007e97fffffffffffffffffffffffffffffffffffffffffffffffffffffffffffffffff82620007aa565b620007f58683620007aa565b95508019841693508086168417925050509392505050565b6000819050919050565b6000819050919050565b6000620008426200083c62000836846200080d565b62000817565b6200080d565b9050919050565b6000819050919050565b6200085e8362000821565b620008766200086d8262000849565b848454620007b7565b825550505050565b600090565b6200088d6200087e565b6200089a81848462000853565b505050565b5b81811015620008c257620008b660008262000883565b600181019050620008a0565b5050565b601f8211156200091157620008db8162000785565b620008e6846200079a565b81016020851015620008f6578190505b6200090e62000905856200079a565b8301826200089f565b50505b505050565b600082821c905092915050565b6000620009366000198460080262000916565b1980831691505092915050565b600062000951838362000923565b9150826002028217905092915050565b6200096c8262000716565b67ffffffffffffffff8111156200098857620009876200052d565b5b62000994825462000750565b620009a1828285620008c6565b600060209050601f831160018114620009d95760008415620009c4578287015190505b620009d0858262000943565b86555062000a40565b601f198416620009e98662000785565b60005b8281101562000a1357848901518255600182019150602085019450602081019050620009ec565b8683101562000a33578489015162000a2f601f89168262000923565b8355505b6001600288020188555050505b505050505050565b7f4e487b7100000000000000000000000000000000000000000000000000000000600052601160045260246000fd5b60008160011c9050919050565b6000808291508390505b600185111562000ad65780860481111562000aae5762000aad62000a48565b5b600185161562000abe5780820291505b808102905062000ace8562000a77565b945062000a8e565b94509492505050565b60008262000af1576001905062000bc4565b8162000b01576000905062000bc4565b816001811462000b1a576002811462000b255762000b5b565b600191505062000bc4565b60ff84111562000b3a5762000b3962000a48565b5b8360020a91508482111562000b545762000b5362000a48565b5b5062000bc4565b5060208310610133831016604e8410600b841016171562000b955782820a90508381111562000b8f5762000b8e62000a48565b5b62000bc4565b62000ba4848484600162000a84565b9250905081840481111562000bbe5762000bbd62000a48565b5b81810290505b9392505050565b600062000bd8826200080d565b915062000be5836200080d565b925062000c147fffffffffffffffffffffffffffffffffffffffffffffffffffffffffffffffff848462000adf565b905092915050565b600062000c29826200080d565b915062000c36836200080d565b925082820262000c46816200080d565b9150828204841483151762000c605762000c5f62000a48565b5b5092915050565b600082825260208201905092915050565b7f45524332303a206d696e7420746f20746865207a65726f206164647265737300600082015250565b600062000cb0601f8362000c67565b915062000cbd8262000c78565b602082019050919050565b6000602082019050818103600083015262000ce38162000ca1565b9050919050565b600062000cf7826200080d565b915062000d04836200080d565b925082820190508082111562000d1f5762000d1e62000a48565b5b92915050565b62000d30816200080d565b82525050565b600060208201905062000d4d600083018462000d25565b92915050565b6127288062000d636000396000f3fe608060405234801561001057600080fd5b50600436106101735760003560e01c806336568abe116100de5780639dc29fac11610097578063a9059cbb11610071578063a9059cbb14610486578063d547741f146104b6578063dd62ed3e146104d2578063fe6d81241461050257610173565b80639dc29fac1461041c578063a217fddf14610438578063a457c2d71461045657610173565b806336568abe14610336578063395093511461035257806340c10f191461038257806370a082311461039e57806391d14854146103ce57806395d89b41146103fe57610173565b806323b872dd1161013057806323b872dd1461024e578063248a9ca31461027e57806327e235e3146102ae5780632a0acc6a146102de5780632f2ff15d146102fc578063313ce5671461031857610173565b806301ffc9a71461017857806306fdde03146101a8578063092fbac7146101c6578063095ea7b3146101e2578063118c4f131461021257806318160ddd14610230575b600080fd5b610192600480360381019061018d91906119e7565b610520565b60405161019f9190611a2f565b60405180910390f35b6101b061059a565b6040516101bd9190611ada565b60405180910390f35b6101e060048036038101906101db9190611b90565b61062c565b005b6101fc60048036038101906101f79190611b90565b6106e9565b6040516102099190611a2f565b60405180910390f35b61021a61070c565b6040516102279190611be9565b60405180910390f35b610238610730565b6040516102459190611c13565b60405180910390f35b61026860048036038101906102639190611c2e565b61073a565b6040516102759190611a2f565b60405180910390f35b61029860048036038101906102939190611cad565b610769565b6040516102a59190611be9565b60405180910390f35b6102c860048036038101906102c39190611cda565b610789565b6040516102d59190611c13565b60405180910390f35b6102e66107a1565b6040516102f39190611be9565b60405180910390f35b61031660048036038101906103119190611d07565b6107c5565b005b6103206107e6565b60405161032d9190611d63565b60405180910390f35b610350600480360381019061034b9190611d07565b6107ef565b005b61036c60048036038101906103679190611b90565b610872565b6040516103799190611a2f565b60405180910390f35b61039c60048036038101906103979190611b90565b6108a9565b005b6103b860048036038101906103b39190611cda565b610970565b6040516103c59190611c13565b60405180910390f35b6103e860048036038101906103e39190611d07565b6109b8565b6040516103f59190611a2f565b60405180910390f35b610406610a23565b6040516104139190611ada565b60405180910390f35b61043660048036038101906104319190611b90565b610ab5565b005b610440610aee565b60405161044d9190611be9565b60405180910390f35b610470600480360381019061046b9190611b90565b610af5565b60405161047d9190611a2f565b60405180910390f35b6104a0600480360381019061049b9190611b90565b610b6c565b6040516104ad9190611a2f565b60405180910390f35b6104d060048036038101906104cb9190611d07565b610b8f565b005b6104ec60048036038101906104e79190611d7e565b610bb0565b6040516104f99190611c13565b60405180910390f35b61050a610c37565b6040516105179190611be9565b60405180910390f35b60007f7965db0b000000000000000000000000000000000000000000000000000000007bffffffffffffffffffffffffffffffffffffffffffffffffffffffff1916827bffffffffffffffffffffffffffffffffffffffffffffffffffffffff19161480610593575061059282610c5b565b5b9050919050565b6060600380546105a990611ded565b80601f01602080910402602001604051908101604052809291908181526020018280546105d590611ded565b80156106225780601f106105f757610100808354040283529160200191610622565b820191906000526020600020905b81548152906001019060200180831161060557829003601f168201915b5050505050905090565b7fdf8b4c520ffe197c5343c6f5aec59570151ef9a492f2c624fd45ddde6135ec4261065681610cc5565b81600660008573ffffffffffffffffffffffffffffffffffffffff1673ffffffffffffffffffffffffffffffffffffffff168152602001908152602001600020546106a19190611e4d565b600660008573ffffffffffffffffffffffffffffffffffffffff1673ffffffffffffffffffffffffffffffffffffffff16815260200190815260200160002081905550505050565b6000806106f4610cd9565b9050610701818585610ce1565b600191505092915050565b7f9667e80708b6eeeb0053fa0cca44e028ff548e2a9f029edfeac87c118b08b7c881565b6000600254905090565b600080610745610cd9565b9050610752858285610eaa565b61075d858585610f36565b60019150509392505050565b600060056000838152602001908152602001600020600101549050919050565b60066020528060005260406000206000915090505481565b7fdf8b4c520ffe197c5343c6f5aec59570151ef9a492f2c624fd45ddde6135ec4281565b6107ce82610769565b6107d781610cc5565b6107e183836111ac565b505050565b60006012905090565b6107f7610cd9565b73ffffffffffffffffffffffffffffffffffffffff168173ffffffffffffffffffffffffffffffffffffffff1614610864576040517f08c379a000000000000000000000000000000000000000000000000000000000815260040161085b90611ef3565b60405180910390fd5b61086e828261128d565b5050565b60008061087d610cd9565b905061089e81858561088f8589610bb0565b6108999190611f13565b610ce1565b600191505092915050565b7ff0887ba65ee2024ea881d91b74c2450ef19e1557f03bed3ea9f16b037cbe2dc96108d381610cc5565b6108dd838361136f565b81600660008573ffffffffffffffffffffffffffffffffffffffff1673ffffffffffffffffffffffffffffffffffffffff168152602001908152602001600020546109289190611f13565b600660008573ffffffffffffffffffffffffffffffffffffffff1673ffffffffffffffffffffffffffffffffffffffff16815260200190815260200160002081905550505050565b60008060008373ffffffffffffffffffffffffffffffffffffffff1673ffffffffffffffffffffffffffffffffffffffff168152602001908152602001600020549050919050565b60006005600084815260200190815260200160002060000160008373ffffffffffffffffffffffffffffffffffffffff1673ffffffffffffffffffffffffffffffffffffffff16815260200190815260200160002060009054906101000a900460ff16905092915050565b606060048054610a3290611ded565b80601f0160208091040260200160405190810160405280929190818152602001828054610a5e90611ded565b8015610aab5780601f10610a8057610100808354040283529160200191610aab565b820191906000526020600020905b815481529060010190602001808311610a8e57829003601f168201915b5050505050905090565b7f9667e80708b6eeeb0053fa0cca44e028ff548e2a9f029edfeac87c118b08b7c8610adf81610cc5565b610ae983836114c5565b505050565b6000801b81565b600080610b00610cd9565b90506000610b0e8286610bb0565b905083811015610b53576040517f08c379a0000000000000000000000000000000000000000000000000000000008152600401610b4a90611fb9565b60405180910390fd5b610b608286868403610ce1565b60019250505092915050565b600080610b77610cd9565b9050610b84818585610f36565b600191505092915050565b610b9882610769565b610ba181610cc5565b610bab838361128d565b505050565b6000600160008473ffffffffffffffffffffffffffffffffffffffff1673ffffffffffffffffffffffffffffffffffffffff16815260200190815260200160002060008373ffffffffffffffffffffffffffffffffffffffff1673ffffffffffffffffffffffffffffffffffffffff16815260200190815260200160002054905092915050565b7ff0887ba65ee2024ea881d91b74c2450ef19e1557f03bed3ea9f16b037cbe2dc981565b60007f01ffc9a7000000000000000000000000000000000000000000000000000000007bffffffffffffffffffffffffffffffffffffffffffffffffffffffff1916827bffffffffffffffffffffffffffffffffffffffffffffffffffffffff1916149050919050565b610cd681610cd1610cd9565b611692565b50565b600033905090565b600073ffffffffffffffffffffffffffffffffffffffff168373ffffffffffffffffffffffffffffffffffffffff1603610d50576040517f08c379a0000000000000000000000000000000000000000000000000000000008152600401610d479061204b565b60405180910390fd5b600073ffffffffffffffffffffffffffffffffffffffff168273ffffffffffffffffffffffffffffffffffffffff1603610dbf576040517f08c379a0000000000000000000000000000000000000000000000000000000008152600401610db6906120dd565b60405180910390fd5b80600160008573ffffffffffffffffffffffffffffffffffffffff1673ffffffffffffffffffffffffffffffffffffffff16815260200190815260200160002060008473ffffffffffffffffffffffffffffffffffffffff1673ffffffffffffffffffffffffffffffffffffffff168152602001908152602001600020819055508173ffffffffffffffffffffffffffffffffffffffff168373ffffffffffffffffffffffffffffffffffffffff167f8c5be1e5ebec7d5bd14f71427d1e84f3dd0314c0f7b2291e5b200ac8c7c3b92583604051610e9d9190611c13565b60405180910390a3505050565b6000610eb68484610bb0565b90507fffffffffffffffffffffffffffffffffffffffffffffffffffffffffffffffff8114610f305781811015610f22576040517f08c379a0000000000000000000000000000000000000000000000000000000008152600401610f1990612149565b60405180910390fd5b610f2f8484848403610ce1565b5b50505050565b600073ffffffffffffffffffffffffffffffffffffffff168373ffffffffffffffffffffffffffffffffffffffff1603610fa5576040517f08c379a0000000000000000000000000000000000000000000000000000000008152600401610f9c906121db565b60405180910390fd5b600073ffffffffffffffffffffffffffffffffffffffff168273ffffffffffffffffffffffffffffffffffffffff1603611014576040517f08c379a000000000000000000000000000000000000000000000000000000000815260040161100b9061226d565b60405180910390fd5b61101f838383611717565b60008060008573ffffffffffffffffffffffffffffffffffffffff1673ffffffffffffffffffffffffffffffffffffffff168152602001908152602001600020549050818110156110a5576040517f08c379a000000000000000000000000000000000000000000000000000000000815260040161109c906122ff565b60405180910390fd5b8181036000808673ffffffffffffffffffffffffffffffffffffffff1673ffffffffffffffffffffffffffffffffffffffff16815260200190815260200160002081905550816000808573ffffffffffffffffffffffffffffffffffffffff1673ffffffffffffffffffffffffffffffffffffffff168152602001908152602001600020600082825401925050819055508273ffffffffffffffffffffffffffffffffffffffff168473ffffffffffffffffffffffffffffffffffffffff167fddf252ad1be2c89b69c2b068fc378daa952ba7f163c4a11628f55a4df523b3ef846040516111939190611c13565b60405180910390a36111a684848461171c565b50505050565b6111b682826109b8565b6112895760016005600084815260200190815260200160002060000160008373ffffffffffffffffffffffffffffffffffffffff1673ffffffffffffffffffffffffffffffffffffffff16815260200190815260200160002060006101000a81548160ff02191690831515021790555061122e610cd9565b73ffffffffffffffffffffffffffffffffffffffff168173ffffffffffffffffffffffffffffffffffffffff16837f2f8788117e7eff1d82e926ec794901d17c78024a50270940304540a733656f0d60405160405180910390a45b5050565b61129782826109b8565b1561136b5760006005600084815260200190815260200160002060000160008373ffffffffffffffffffffffffffffffffffffffff1673ffffffffffffffffffffffffffffffffffffffff16815260200190815260200160002060006101000a81548160ff021916908315150217905550611310610cd9565b73ffffffffffffffffffffffffffffffffffffffff168173ffffffffffffffffffffffffffffffffffffffff16837ff6391f5c32d9c69d2a47ea670b442974b53935d1edc7fd64eb21e047a839171b60405160405180910390a45b5050565b600073ffffffffffffffffffffffffffffffffffffffff168273ffffffffffffffffffffffffffffffffffffffff16036113de576040517f08c379a00000000000000000000000000000000000000000000000000000000081526004016113d59061236b565b60405180910390fd5b6113ea60008383611717565b80600260008282546113fc9190611f13565b92505081905550806000808473ffffffffffffffffffffffffffffffffffffffff1673ffffffffffffffffffffffffffffffffffffffff168152602001908152602001600020600082825401925050819055508173ffffffffffffffffffffffffffffffffffffffff16600073ffffffffffffffffffffffffffffffffffffffff167fddf252ad1be2c89b69c2b068fc378daa952ba7f163c4a11628f55a4df523b3ef836040516114ad9190611c13565b60405180910390a36114c16000838361171c565b5050565b600073ffffffffffffffffffffffffffffffffffffffff168273ffffffffffffffffffffffffffffffffffffffff1603611534576040517f08c379a000000000000000000000000000000000000000000000000000000000815260040161152b906123fd565b60405180910390fd5b61154082600083611717565b60008060008473ffffffffffffffffffffffffffffffffffffffff1673ffffffffffffffffffffffffffffffffffffffff168152602001908152602001600020549050818110156115c6576040517f08c379a00000000000000000000000000000000000000000000000000000000081526004016115bd9061248f565b60405180910390fd5b8181036000808573ffffffffffffffffffffffffffffffffffffffff1673ffffffffffffffffffffffffffffffffffffffff1681526020019081526020016000208190555081600260008282540392505081905550600073ffffffffffffffffffffffffffffffffffffffff168373ffffffffffffffffffffffffffffffffffffffff167fddf252ad1be2c89b69c2b068fc378daa952ba7f163c4a11628f55a4df523b3ef846040516116799190611c13565b60405180910390a361168d8360008461171c565b505050565b61169c82826109b8565b611713576116a981611721565b6116b78360001c602061174e565b6040516020016116c8929190612583565b6040516020818303038152906040526040517f08c379a000000000000000000000000000000000000000000000000000000000815260040161170a9190611ada565b60405180910390fd5b5050565b505050565b505050565b60606117478273ffffffffffffffffffffffffffffffffffffffff16601460ff1661174e565b9050919050565b60606000600283600261176191906125bd565b61176b9190611f13565b67ffffffffffffffff811115611784576117836125ff565b5b6040519080825280601f01601f1916602001820160405280156117b65781602001600182028036833780820191505090505b5090507f3000000000000000000000000000000000000000000000000000000000000000816000815181106117ee576117ed61262e565b5b60200101907effffffffffffffffffffffffffffffffffffffffffffffffffffffffffffff1916908160001a9053507f7800000000000000000000000000000000000000000000000000000000000000816001815181106118525761185161262e565b5b60200101907effffffffffffffffffffffffffffffffffffffffffffffffffffffffffffff1916908160001a9053506000600184600261189291906125bd565b61189c9190611f13565b90505b600181111561193c577f3031323334353637383961626364656600000000000000000000000000000000600f8616601081106118de576118dd61262e565b5b1a60f81b8282815181106118f5576118f461262e565b5b60200101907effffffffffffffffffffffffffffffffffffffffffffffffffffffffffffff1916908160001a905350600485901c9450806119359061265d565b905061189f565b5060008414611980576040517f08c379a0000000000000000000000000000000000000000000000000000000008152600401611977906126d2565b60405180910390fd5b8091505092915050565b600080fd5b60007fffffffff0000000000000000000000000000000000000000000000000000000082169050919050565b6119c48161198f565b81146119cf57600080fd5b50565b6000813590506119e1816119bb565b92915050565b6000602082840312156119fd576119fc61198a565b5b6000611a0b848285016119d2565b91505092915050565b60008115159050919050565b611a2981611a14565b82525050565b6000602082019050611a446000830184611a20565b92915050565b600081519050919050565b600082825260208201905092915050565b60005b83811015611a84578082015181840152602081019050611a69565b60008484015250505050565b6000601f19601f8301169050919050565b6000611aac82611a4a565b611ab68185611a55565b9350611ac6818560208601611a66565b611acf81611a90565b840191505092915050565b60006020820190508181036000830152611af48184611aa1565b905092915050565b600073ffffffffffffffffffffffffffffffffffffffff82169050919050565b6000611b2782611afc565b9050919050565b611b3781611b1c565b8114611b4257600080fd5b50565b600081359050611b5481611b2e565b92915050565b6000819050919050565b611b6d81611b5a565b8114611b7857600080fd5b50565b600081359050611b8a81611b64565b92915050565b60008060408385031215611ba757611ba661198a565b5b6000611bb585828601611b45565b9250506020611bc685828601611b7b565b9150509250929050565b6000819050919050565b611be381611bd0565b82525050565b6000602082019050611bfe6000830184611bda565b92915050565b611c0d81611b5a565b82525050565b6000602082019050611c286000830184611c04565b92915050565b600080600060608486031215611c4757611c4661198a565b5b6000611c5586828701611b45565b9350506020611c6686828701611b45565b9250506040611c7786828701611b7b565b9150509250925092565b611c8a81611bd0565b8114611c9557600080fd5b50565b600081359050611ca781611c81565b92915050565b600060208284031215611cc357611cc261198a565b5b6000611cd184828501611c98565b91505092915050565b600060208284031215611cf057611cef61198a565b5b6000611cfe84828501611b45565b91505092915050565b60008060408385031215611d1e57611d1d61198a565b5b6000611d2c85828601611c98565b9250506020611d3d85828601611b45565b9150509250929050565b600060ff82169050919050565b611d5d81611d47565b82525050565b6000602082019050611d786000830184611d54565b92915050565b60008060408385031215611d9557611d9461198a565b5b6000611da385828601611b45565b9250506020611db485828601611b45565b9150509250929050565b7f4e487b7100000000000000000000000000000000000000000000000000000000600052602260045260246000fd5b60006002820490506001821680611e0557607f821691505b602082108103611e1857611e17611dbe565b5b50919050565b7f4e487b7100000000000000000000000000000000000000000000000000000000600052601160045260246000fd5b6000611e5882611b5a565b9150611e6383611b5a565b9250828203905081811115611e7b57611e7a611e1e565b5b92915050565b7f416363657373436f6e74726f6c3a2063616e206f6e6c792072656e6f756e636560008201527f20726f6c657320666f722073656c660000000000000000000000000000000000602082015250565b6000611edd602f83611a55565b9150611ee882611e81565b604082019050919050565b60006020820190508181036000830152611f0c81611ed0565b9050919050565b6000611f1e82611b5a565b9150611f2983611b5a565b9250828201905080821115611f4157611f40611e1e565b5b92915050565b7f45524332303a2064656372656173656420616c6c6f77616e63652062656c6f7760008201527f207a65726f000000000000000000000000000000000000000000000000000000602082015250565b6000611fa3602583611a55565b9150611fae82611f47565b604082019050919050565b60006020820190508181036000830152611fd281611f96565b9050919050565b7f45524332303a20617070726f76652066726f6d20746865207a65726f2061646460008201527f7265737300000000000000000000000000000000000000000000000000000000602082015250565b6000612035602483611a55565b915061204082611fd9565b604082019050919050565b6000602082019050818103600083015261206481612028565b9050919050565b7f45524332303a20617070726f766520746f20746865207a65726f20616464726560008201527f7373000000000000000000000000000000000000000000000000000000000000602082015250565b60006120c7602283611a55565b91506120d28261206b565b604082019050919050565b600060208201905081810360008301526120f6816120ba565b9050919050565b7f45524332303a20696e73756666696369656e7420616c6c6f77616e6365000000600082015250565b6000612133601d83611a55565b915061213e826120fd565b602082019050919050565b6000602082019050818103600083015261216281612126565b9050919050565b7f45524332303a207472616e736665722066726f6d20746865207a65726f20616460008201527f6472657373000000000000000000000000000000000000000000000000000000602082015250565b60006121c5602583611a55565b91506121d082612169565b604082019050919050565b600060208201905081810360008301526121f4816121b8565b9050919050565b7f45524332303a207472616e7366657220746f20746865207a65726f206164647260008201527f6573730000000000000000000000000000000000000000000000000000000000602082015250565b6000612257602383611a55565b9150612262826121fb565b604082019050919050565b600060208201905081810360008301526122868161224a565b9050919050565b7f45524332303a207472616e7366657220616d6f756e742065786365656473206260008201527f616c616e63650000000000000000000000000000000000000000000000000000602082015250565b60006122e9602683611a55565b91506122f48261228d565b604082019050919050565b60006020820190508181036000830152612318816122dc565b9050919050565b7f45524332303a206d696e7420746f20746865207a65726f206164647265737300600082015250565b6000612355601f83611a55565b91506123608261231f565b602082019050919050565b6000602082019050818103600083015261238481612348565b9050919050565b7f45524332303a206275726e2066726f6d20746865207a65726f2061646472657360008201527f7300000000000000000000000000000000000000000000000000000000000000602082015250565b60006123e7602183611a55565b91506123f28261238b565b604082019050919050565b60006020820190508181036000830152612416816123da565b9050919050565b7f45524332303a206275726e20616d6f756e7420657863656564732062616c616e60008201527f6365000000000000000000000000000000000000000000000000000000000000602082015250565b6000612479602283611a55565b91506124848261241d565b604082019050919050565b600060208201905081810360008301526124a88161246c565b9050919050565b600081905092915050565b7f416363657373436f6e74726f6c3a206163636f756e7420000000000000000000600082015250565b60006124f06017836124af565b91506124fb826124ba565b601782019050919050565b600061251182611a4a565b61251b81856124af565b935061252b818560208601611a66565b80840191505092915050565b7f206973206d697373696e6720726f6c6520000000000000000000000000000000600082015250565b600061256d6011836124af565b915061257882612537565b601182019050919050565b600061258e826124e3565b915061259a8285612506565b91506125a582612560565b91506125b18284612506565b91508190509392505050565b60006125c882611b5a565b91506125d383611b5a565b92508282026125e181611b5a565b915082820484148315176125f8576125f7611e1e565b5b5092915050565b7f4e487b7100000000000000000000000000000000000000000000000000000000600052604160045260246000fd5b7f4e487b7100000000000000000000000000000000000000000000000000000000600052603260045260246000fd5b600061266882611b5a565b91506000820361267b5761267a611e1e565b5b600182039050919050565b7f537472696e67733a20686578206c656e67746820696e73756666696369656e74600082015250565b60006126bc602083611a55565b91506126c782612686565b602082019050919050565b600060208201905081810360008301526126eb816126af565b905091905056fea2646970667358221220d7541f48cd7a40f88146ac1e7aa13416a16a467ec368381a277ab85d2901401b64736f6c63430008110033",
  "linkReferences": {},
  "deployedLinkReferences": {}
}