{"contracts/brownie.sol":{"BrowniePoints":{"abi":[{"inputs":[],"stateMutability":"nonpayable","type":"constructor"},{"inputs":[{"components":[{"internalType":"string","name":"header","type":"string"},{"internalType":"string","name":"keyword","type":"string"},{"internalType":"uint256","name":"x","type":"uint256"},{"internalType":"uint256","name":"y","type":"uint256"},{"internalType":"bytes","name":"intent","type":"bytes"}],"internalType":"struct BrowniePoints.brownie[]","name":"brownies","type":"tuple[]"},{"internalType":"string","name":"uri","type":"string"},{"internalType":"uint256","name":"id","type":"uint256"}],"name":"createBrownies","outputs":[],"stateMutability":"payable","type":"function"},{"inputs":[{"internalType":"string","name":"_uri","type":"string"},{"internalType":"uint256","name":"_id","type":"uint256"}],"name":"createOrganisation","outputs":[],"stateMutability":"payable","type":"function"}],"devdoc":{"kind":"dev","methods":{},"version":1},"evm":{"bytecode":{"linkReferences":{},"object":"608060405234801561001057600080fd5b506001600081905550610de3806100286000396000f3fe6080604052600436106100295760003560e01c8063a2756b2a1461002e578063c5802e3a1461004a575b600080fd5b6100486004803603810190610043919061074e565b610066565b005b610064600480360381019061005f91906107d9565b610204565b005b61006e6102f4565b6000600360003373ffffffffffffffffffffffffffffffffffffffff1673ffffffffffffffffffffffffffffffffffffffff16815260200190815260200160002054905060008451905060005b818110156101a5578581815181106100d6576100d5610835565b5b6020026020010151600160003373ffffffffffffffffffffffffffffffffffffffff1673ffffffffffffffffffffffffffffffffffffffff1681526020019081526020016000206000838661012b9190610893565b8152602001908152602001600020600082015181600001908161014e9190610ade565b5060208201518160010190816101649190610ade565b506040820151816002015560608201518160030155608082015181600401908161018e9190610c16565b50905050808061019d90610ce8565b9150506100bb565b5080826101b29190610893565b600360003373ffffffffffffffffffffffffffffffffffffffff1673ffffffffffffffffffffffffffffffffffffffff1681526020019081526020016000208190555050506101ff610343565b505050565b61020c6102f4565b81600260003373ffffffffffffffffffffffffffffffffffffffff1673ffffffffffffffffffffffffffffffffffffffff168152602001908152602001600020600101908161025b9190610ade565b5080600260003373ffffffffffffffffffffffffffffffffffffffff1673ffffffffffffffffffffffffffffffffffffffff168152602001908152602001600020600001819055506000600360003373ffffffffffffffffffffffffffffffffffffffff1673ffffffffffffffffffffffffffffffffffffffff168152602001908152602001600020819055506102f0610343565b5050565b600260005403610339576040517f08c379a000000000000000000000000000000000000000000000000000000000815260040161033090610d8d565b60405180910390fd5b6002600081905550565b6001600081905550565b6000604051905090565b600080fd5b600080fd5b600080fd5b6000601f19601f8301169050919050565b7f4e487b7100000000000000000000000000000000000000000000000000000000600052604160045260246000fd5b6103af82610366565b810181811067ffffffffffffffff821117156103ce576103cd610377565b5b80604052505050565b60006103e161034d565b90506103ed82826103a6565b919050565b600067ffffffffffffffff82111561040d5761040c610377565b5b602082029050602081019050919050565b600080fd5b600080fd5b600080fd5b600080fd5b600067ffffffffffffffff82111561044d5761044c610377565b5b61045682610366565b9050602081019050919050565b82818337600083830152505050565b600061048561048084610432565b6103d7565b9050828152602081018484840111156104a1576104a061042d565b5b6104ac848285610463565b509392505050565b600082601f8301126104c9576104c8610361565b5b81356104d9848260208601610472565b91505092915050565b6000819050919050565b6104f5816104e2565b811461050057600080fd5b50565b600081359050610512816104ec565b92915050565b600067ffffffffffffffff82111561053357610532610377565b5b61053c82610366565b9050602081019050919050565b600061055c61055784610518565b6103d7565b9050828152602081018484840111156105785761057761042d565b5b610583848285610463565b509392505050565b600082601f8301126105a05761059f610361565b5b81356105b0848260208601610549565b91505092915050565b600060a082840312156105cf576105ce610423565b5b6105d960a06103d7565b9050600082013567ffffffffffffffff8111156105f9576105f8610428565b5b610605848285016104b4565b600083015250602082013567ffffffffffffffff81111561062957610628610428565b5b610635848285016104b4565b602083015250604061064984828501610503565b604083015250606061065d84828501610503565b606083015250608082013567ffffffffffffffff81111561068157610680610428565b5b61068d8482850161058b565b60808301525092915050565b60006106ac6106a7846103f2565b6103d7565b905080838252602082019050602084028301858111156106cf576106ce61041e565b5b835b8181101561071657803567ffffffffffffffff8111156106f4576106f3610361565b5b80860161070189826105b9565b855260208501945050506020810190506106d1565b5050509392505050565b600082601f83011261073557610734610361565b5b8135610745848260208601610699565b91505092915050565b60008060006060848603121561076757610766610357565b5b600084013567ffffffffffffffff8111156107855761078461035c565b5b61079186828701610720565b935050602084013567ffffffffffffffff8111156107b2576107b161035c565b5b6107be868287016104b4565b92505060406107cf86828701610503565b9150509250925092565b600080604083850312156107f0576107ef610357565b5b600083013567ffffffffffffffff81111561080e5761080d61035c565b5b61081a858286016104b4565b925050602061082b85828601610503565b9150509250929050565b7f4e487b7100000000000000000000000000000000000000000000000000000000600052603260045260246000fd5b7f4e487b7100000000000000000000000000000000000000000000000000000000600052601160045260246000fd5b600061089e826104e2565b91506108a9836104e2565b92508282019050808211156108c1576108c0610864565b5b92915050565b600081519050919050565b7f4e487b7100000000000000000000000000000000000000000000000000000000600052602260045260246000fd5b6000600282049050600182168061091957607f821691505b60208210810361092c5761092b6108d2565b5b50919050565b60008190508160005260206000209050919050565b60006020601f8301049050919050565b600082821b905092915050565b6000600883026109947fffffffffffffffffffffffffffffffffffffffffffffffffffffffffffffffff82610957565b61099e8683610957565b95508019841693508086168417925050509392505050565b6000819050919050565b60006109db6109d66109d1846104e2565b6109b6565b6104e2565b9050919050565b6000819050919050565b6109f5836109c0565b610a09610a01826109e2565b848454610964565b825550505050565b600090565b610a1e610a11565b610a298184846109ec565b505050565b5b81811015610a4d57610a42600082610a16565b600181019050610a2f565b5050565b601f821115610a9257610a6381610932565b610a6c84610947565b81016020851015610a7b578190505b610a8f610a8785610947565b830182610a2e565b50505b505050565b600082821c905092915050565b6000610ab560001984600802610a97565b1980831691505092915050565b6000610ace8383610aa4565b9150826002028217905092915050565b610ae7826108c7565b67ffffffffffffffff811115610b0057610aff610377565b5b610b0a8254610901565b610b15828285610a51565b600060209050601f831160018114610b485760008415610b36578287015190505b610b408582610ac2565b865550610ba8565b601f198416610b5686610932565b60005b82811015610b7e57848901518255600182019150602085019450602081019050610b59565b86831015610b9b5784890151610b97601f891682610aa4565b8355505b6001600288020188555050505b505050505050565b600081519050919050565b60008190508160005260206000209050919050565b601f821115610c1157610be281610bbb565b610beb84610947565b81016020851015610bfa578190505b610c0e610c0685610947565b830182610a2e565b50505b505050565b610c1f82610bb0565b67ffffffffffffffff811115610c3857610c37610377565b5b610c428254610901565b610c4d828285610bd0565b600060209050601f831160018114610c805760008415610c6e578287015190505b610c788582610ac2565b865550610ce0565b601f198416610c8e86610bbb565b60005b82811015610cb657848901518255600182019150602085019450602081019050610c91565b86831015610cd35784890151610ccf601f891682610aa4565b8355505b6001600288020188555050505b505050505050565b6000610cf3826104e2565b91507fffffffffffffffffffffffffffffffffffffffffffffffffffffffffffffffff8203610d2557610d24610864565b5b600182019050919050565b600082825260208201905092915050565b7f5265656e7472616e637947756172643a207265656e7472616e742063616c6c00600082015250565b6000610d77601f83610d30565b9150610d8282610d41565b602082019050919050565b60006020820190508181036000830152610da681610d6a565b905091905056fea264697066735822122046ebdc098f7cbfc9ef097b8d2019d84c08f75ab1b586c522a001dce72e9e6ae664736f6c63430008110033","opcodes":"PUSH1 0x80 PUSH1 0x40 MSTORE CALLVALUE DUP1 ISZERO PUSH2 0x10 JUMPI PUSH1 0x0 DUP1 REVERT JUMPDEST POP PUSH1 0x1 PUSH1 0x0 DUP2 SWAP1 SSTORE POP PUSH2 0xDE3 DUP1 PUSH2 0x28 PUSH1 0x0 CODECOPY PUSH1 0x0 RETURN INVALID PUSH1 0x80 PUSH1 0x40 MSTORE PUSH1 0x4 CALLDATASIZE LT PUSH2 0x29 JUMPI PUSH1 0x0 CALLDATALOAD PUSH1 0xE0 SHR DUP1 PUSH4 0xA2756B2A EQ PUSH2 0x2E JUMPI DUP1 PUSH4 0xC5802E3A EQ PUSH2 0x4A JUMPI JUMPDEST PUSH1 0x0 DUP1 REVERT JUMPDEST PUSH2 0x48 PUSH1 0x4 DUP1 CALLDATASIZE SUB DUP2 ADD SWAP1 PUSH2 0x43 SWAP2 SWAP1 PUSH2 0x74E JUMP JUMPDEST PUSH2 0x66 JUMP JUMPDEST STOP JUMPDEST PUSH2 0x64 PUSH1 0x4 DUP1 CALLDATASIZE SUB DUP2 ADD SWAP1 PUSH2 0x5F SWAP2 SWAP1 PUSH2 0x7D9 JUMP JUMPDEST PUSH2 0x204 JUMP JUMPDEST STOP JUMPDEST PUSH2 0x6E PUSH2 0x2F4 JUMP JUMPDEST PUSH1 0x0 PUSH1 0x3 PUSH1 0x0 CALLER PUSH20 0xFFFFFFFFFFFFFFFFFFFFFFFFFFFFFFFFFFFFFFFF AND PUSH20 0xFFFFFFFFFFFFFFFFFFFFFFFFFFFFFFFFFFFFFFFF AND DUP2 MSTORE PUSH1 0x20 ADD SWAP1 DUP2 MSTORE PUSH1 0x20 ADD PUSH1 0x0 KECCAK256 SLOAD SWAP1 POP PUSH1 0x0 DUP5 MLOAD SWAP1 POP PUSH1 0x0 JUMPDEST DUP2 DUP2 LT ISZERO PUSH2 0x1A5 JUMPI DUP6 DUP2 DUP2 MLOAD DUP2 LT PUSH2 0xD6 JUMPI PUSH2 0xD5 PUSH2 0x835 JUMP JUMPDEST JUMPDEST PUSH1 0x20 MUL PUSH1 0x20 ADD ADD MLOAD PUSH1 0x1 PUSH1 0x0 CALLER PUSH20 0xFFFFFFFFFFFFFFFFFFFFFFFFFFFFFFFFFFFFFFFF AND PUSH20 0xFFFFFFFFFFFFFFFFFFFFFFFFFFFFFFFFFFFFFFFF AND DUP2 MSTORE PUSH1 0x20 ADD SWAP1 DUP2 MSTORE PUSH1 0x20 ADD PUSH1 0x0 KECCAK256 PUSH1 0x0 DUP4 DUP7 PUSH2 0x12B SWAP2 SWAP1 PUSH2 0x893 JUMP JUMPDEST DUP2 MSTORE PUSH1 0x20 ADD SWAP1 DUP2 MSTORE PUSH1 0x20 ADD PUSH1 0x0 KECCAK256 PUSH1 0x0 DUP3 ADD MLOAD DUP2 PUSH1 0x0 ADD SWAP1 DUP2 PUSH2 0x14E SWAP2 SWAP1 PUSH2 0xADE JUMP JUMPDEST POP PUSH1 0x20 DUP3 ADD MLOAD DUP2 PUSH1 0x1 ADD SWAP1 DUP2 PUSH2 0x164 SWAP2 SWAP1 PUSH2 0xADE JUMP JUMPDEST POP PUSH1 0x40 DUP3 ADD MLOAD DUP2 PUSH1 0x2 ADD SSTORE PUSH1 0x60 DUP3 ADD MLOAD DUP2 PUSH1 0x3 ADD SSTORE PUSH1 0x80 DUP3 ADD MLOAD DUP2 PUSH1 0x4 ADD SWAP1 DUP2 PUSH2 0x18E SWAP2 SWAP1 PUSH2 0xC16 JUMP JUMPDEST POP SWAP1 POP POP DUP1 DUP1 PUSH2 0x19D SWAP1 PUSH2 0xCE8 JUMP JUMPDEST SWAP2 POP POP PUSH2 0xBB JUMP JUMPDEST POP DUP1 DUP3 PUSH2 0x1B2 SWAP2 SWAP1 PUSH2 0x893 JUMP JUMPDEST PUSH1 0x3 PUSH1 0x0 CALLER PUSH20 0xFFFFFFFFFFFFFFFFFFFFFFFFFFFFFFFFFFFFFFFF AND PUSH20 0xFFFFFFFFFFFFFFFFFFFFFFFFFFFFFFFFFFFFFFFF AND DUP2 MSTORE PUSH1 0x20 ADD SWAP1 DUP2 MSTORE PUSH1 0x20 ADD PUSH1 0x0 KECCAK256 DUP2 SWAP1 SSTORE POP POP POP PUSH2 0x1FF PUSH2 0x343 JUMP JUMPDEST POP POP POP JUMP JUMPDEST PUSH2 0x20C PUSH2 0x2F4 JUMP JUMPDEST DUP2 PUSH1 0x2 PUSH1 0x0 CALLER PUSH20 0xFFFFFFFFFFFFFFFFFFFFFFFFFFFFFFFFFFFFFFFF AND PUSH20 0xFFFFFFFFFFFFFFFFFFFFFFFFFFFFFFFFFFFFFFFF AND DUP2 MSTORE PUSH1 0x20 ADD SWAP1 DUP2 MSTORE PUSH1 0x20 ADD PUSH1 0x0 KECCAK256 PUSH1 0x1 ADD SWAP1 DUP2 PUSH2 0x25B SWAP2 SWAP1 PUSH2 0xADE JUMP JUMPDEST POP DUP1 PUSH1 0x2 PUSH1 0x0 CALLER PUSH20 0xFFFFFFFFFFFFFFFFFFFFFFFFFFFFFFFFFFFFFFFF AND PUSH20 0xFFFFFFFFFFFFFFFFFFFFFFFFFFFFFFFFFFFFFFFF AND DUP2 MSTORE PUSH1 0x20 ADD SWAP1 DUP2 MSTORE PUSH1 0x20 ADD PUSH1 0x0 KECCAK256 PUSH1 0x0 ADD DUP2 SWAP1 SSTORE POP PUSH1 0x0 PUSH1 0x3 PUSH1 0x0 CALLER PUSH20 0xFFFFFFFFFFFFFFFFFFFFFFFFFFFFFFFFFFFFFFFF AND PUSH20 0xFFFFFFFFFFFFFFFFFFFFFFFFFFFFFFFFFFFFFFFF AND DUP2 MSTORE PUSH1 0x20 ADD SWAP1 DUP2 MSTORE PUSH1 0x20 ADD PUSH1 0x0 KECCAK256 DUP2 SWAP1 SSTORE POP PUSH2 0x2F0 PUSH2 0x343 JUMP JUMPDEST POP POP JUMP JUMPDEST PUSH1 0x2 PUSH1 0x0 SLOAD SUB PUSH2 0x339 JUMPI PUSH1 0x40 MLOAD PUSH32 0x8C379A000000000000000000000000000000000000000000000000000000000 DUP2 MSTORE PUSH1 0x4 ADD PUSH2 0x330 SWAP1 PUSH2 0xD8D JUMP JUMPDEST PUSH1 0x40 MLOAD DUP1 SWAP2 SUB SWAP1 REVERT JUMPDEST PUSH1 0x2 PUSH1 0x0 DUP2 SWAP1 SSTORE POP JUMP JUMPDEST PUSH1 0x1 PUSH1 0x0 DUP2 SWAP1 SSTORE POP JUMP JUMPDEST PUSH1 0x0 PUSH1 0x40 MLOAD SWAP1 POP SWAP1 JUMP JUMPDEST PUSH1 0x0 DUP1 REVERT JUMPDEST PUSH1 0x0 DUP1 REVERT JUMPDEST PUSH1 0x0 DUP1 REVERT JUMPDEST PUSH1 0x0 PUSH1 0x1F NOT PUSH1 0x1F DUP4 ADD AND SWAP1 POP SWAP2 SWAP1 POP JUMP JUMPDEST PUSH32 0x4E487B7100000000000000000000000000000000000000000000000000000000 PUSH1 0x0 MSTORE PUSH1 0x41 PUSH1 0x4 MSTORE PUSH1 0x24 PUSH1 0x0 REVERT JUMPDEST PUSH2 0x3AF DUP3 PUSH2 0x366 JUMP JUMPDEST DUP2 ADD DUP2 DUP2 LT PUSH8 0xFFFFFFFFFFFFFFFF DUP3 GT OR ISZERO PUSH2 0x3CE JUMPI PUSH2 0x3CD PUSH2 0x377 JUMP JUMPDEST JUMPDEST DUP1 PUSH1 0x40 MSTORE POP POP POP JUMP JUMPDEST PUSH1 0x0 PUSH2 0x3E1 PUSH2 0x34D JUMP JUMPDEST SWAP1 POP PUSH2 0x3ED DUP3 DUP3 PUSH2 0x3A6 JUMP JUMPDEST SWAP2 SWAP1 POP JUMP JUMPDEST PUSH1 0x0 PUSH8 0xFFFFFFFFFFFFFFFF DUP3 GT ISZERO PUSH2 0x40D JUMPI PUSH2 0x40C PUSH2 0x377 JUMP JUMPDEST JUMPDEST PUSH1 0x20 DUP3 MUL SWAP1 POP PUSH1 0x20 DUP2 ADD SWAP1 POP SWAP2 SWAP1 POP JUMP JUMPDEST PUSH1 0x0 DUP1 REVERT JUMPDEST PUSH1 0x0 DUP1 REVERT JUMPDEST PUSH1 0x0 DUP1 REVERT JUMPDEST PUSH1 0x0 DUP1 REVERT JUMPDEST PUSH1 0x0 PUSH8 0xFFFFFFFFFFFFFFFF DUP3 GT ISZERO PUSH2 0x44D JUMPI PUSH2 0x44C PUSH2 0x377 JUMP JUMPDEST JUMPDEST PUSH2 0x456 DUP3 PUSH2 0x366 JUMP JUMPDEST SWAP1 POP PUSH1 0x20 DUP2 ADD SWAP1 POP SWAP2 SWAP1 POP JUMP JUMPDEST DUP3 DUP2 DUP4 CALLDATACOPY PUSH1 0x0 DUP4 DUP4 ADD MSTORE POP POP POP JUMP JUMPDEST PUSH1 0x0 PUSH2 0x485 PUSH2 0x480 DUP5 PUSH2 0x432 JUMP JUMPDEST PUSH2 0x3D7 JUMP JUMPDEST SWAP1 POP DUP3 DUP2 MSTORE PUSH1 0x20 DUP2 ADD DUP5 DUP5 DUP5 ADD GT ISZERO PUSH2 0x4A1 JUMPI PUSH2 0x4A0 PUSH2 0x42D JUMP JUMPDEST JUMPDEST PUSH2 0x4AC DUP5 DUP3 DUP6 PUSH2 0x463 JUMP JUMPDEST POP SWAP4 SWAP3 POP POP POP JUMP JUMPDEST PUSH1 0x0 DUP3 PUSH1 0x1F DUP4 ADD SLT PUSH2 0x4C9 JUMPI PUSH2 0x4C8 PUSH2 0x361 JUMP JUMPDEST JUMPDEST DUP2 CALLDATALOAD PUSH2 0x4D9 DUP5 DUP3 PUSH1 0x20 DUP7 ADD PUSH2 0x472 JUMP JUMPDEST SWAP2 POP POP SWAP3 SWAP2 POP POP JUMP JUMPDEST PUSH1 0x0 DUP2 SWAP1 POP SWAP2 SWAP1 POP JUMP JUMPDEST PUSH2 0x4F5 DUP2 PUSH2 0x4E2 JUMP JUMPDEST DUP2 EQ PUSH2 0x500 JUMPI PUSH1 0x0 DUP1 REVERT JUMPDEST POP JUMP JUMPDEST PUSH1 0x0 DUP2 CALLDATALOAD SWAP1 POP PUSH2 0x512 DUP2 PUSH2 0x4EC JUMP JUMPDEST SWAP3 SWAP2 POP POP JUMP JUMPDEST PUSH1 0x0 PUSH8 0xFFFFFFFFFFFFFFFF DUP3 GT ISZERO PUSH2 0x533 JUMPI PUSH2 0x532 PUSH2 0x377 JUMP JUMPDEST JUMPDEST PUSH2 0x53C DUP3 PUSH2 0x366 JUMP JUMPDEST SWAP1 POP PUSH1 0x20 DUP2 ADD SWAP1 POP SWAP2 SWAP1 POP JUMP JUMPDEST PUSH1 0x0 PUSH2 0x55C PUSH2 0x557 DUP5 PUSH2 0x518 JUMP JUMPDEST PUSH2 0x3D7 JUMP JUMPDEST SWAP1 POP DUP3 DUP2 MSTORE PUSH1 0x20 DUP2 ADD DUP5 DUP5 DUP5 ADD GT ISZERO PUSH2 0x578 JUMPI PUSH2 0x577 PUSH2 0x42D JUMP JUMPDEST JUMPDEST PUSH2 0x583 DUP5 DUP3 DUP6 PUSH2 0x463 JUMP JUMPDEST POP SWAP4 SWAP3 POP POP POP JUMP JUMPDEST PUSH1 0x0 DUP3 PUSH1 0x1F DUP4 ADD SLT PUSH2 0x5A0 JUMPI PUSH2 0x59F PUSH2 0x361 JUMP JUMPDEST JUMPDEST DUP2 CALLDATALOAD PUSH2 0x5B0 DUP5 DUP3 PUSH1 0x20 DUP7 ADD PUSH2 0x549 JUMP JUMPDEST SWAP2 POP POP SWAP3 SWAP2 POP POP JUMP JUMPDEST PUSH1 0x0 PUSH1 0xA0 DUP3 DUP5 SUB SLT ISZERO PUSH2 0x5CF JUMPI PUSH2 0x5CE PUSH2 0x423 JUMP JUMPDEST JUMPDEST PUSH2 0x5D9 PUSH1 0xA0 PUSH2 0x3D7 JUMP JUMPDEST SWAP1 POP PUSH1 0x0 DUP3 ADD CALLDATALOAD PUSH8 0xFFFFFFFFFFFFFFFF DUP2 GT ISZERO PUSH2 0x5F9 JUMPI PUSH2 0x5F8 PUSH2 0x428 JUMP JUMPDEST JUMPDEST PUSH2 0x605 DUP5 DUP3 DUP6 ADD PUSH2 0x4B4 JUMP JUMPDEST PUSH1 0x0 DUP4 ADD MSTORE POP PUSH1 0x20 DUP3 ADD CALLDATALOAD PUSH8 0xFFFFFFFFFFFFFFFF DUP2 GT ISZERO PUSH2 0x629 JUMPI PUSH2 0x628 PUSH2 0x428 JUMP JUMPDEST JUMPDEST PUSH2 0x635 DUP5 DUP3 DUP6 ADD PUSH2 0x4B4 JUMP JUMPDEST PUSH1 0x20 DUP4 ADD MSTORE POP PUSH1 0x40 PUSH2 0x649 DUP5 DUP3 DUP6 ADD PUSH2 0x503 JUMP JUMPDEST PUSH1 0x40 DUP4 ADD MSTORE POP PUSH1 0x60 PUSH2 0x65D DUP5 DUP3 DUP6 ADD PUSH2 0x503 JUMP JUMPDEST PUSH1 0x60 DUP4 ADD MSTORE POP PUSH1 0x80 DUP3 ADD CALLDATALOAD PUSH8 0xFFFFFFFFFFFFFFFF DUP2 GT ISZERO PUSH2 0x681 JUMPI PUSH2 0x680 PUSH2 0x428 JUMP JUMPDEST JUMPDEST PUSH2 0x68D DUP5 DUP3 DUP6 ADD PUSH2 0x58B JUMP JUMPDEST PUSH1 0x80 DUP4 ADD MSTORE POP SWAP3 SWAP2 POP POP JUMP JUMPDEST PUSH1 0x0 PUSH2 0x6AC PUSH2 0x6A7 DUP5 PUSH2 0x3F2 JUMP JUMPDEST PUSH2 0x3D7 JUMP JUMPDEST SWAP1 POP DUP1 DUP4 DUP3 MSTORE PUSH1 0x20 DUP3 ADD SWAP1 POP PUSH1 0x20 DUP5 MUL DUP4 ADD DUP6 DUP2 GT ISZERO PUSH2 0x6CF JUMPI PUSH2 0x6CE PUSH2 0x41E JUMP JUMPDEST JUMPDEST DUP4 JUMPDEST DUP2 DUP2 LT ISZERO PUSH2 0x716 JUMPI DUP1 CALLDATALOAD PUSH8 0xFFFFFFFFFFFFFFFF DUP2 GT ISZERO PUSH2 0x6F4 JUMPI PUSH2 0x6F3 PUSH2 0x361 JUMP JUMPDEST JUMPDEST DUP1 DUP7 ADD PUSH2 0x701 DUP10 DUP3 PUSH2 0x5B9 JUMP JUMPDEST DUP6 MSTORE PUSH1 0x20 DUP6 ADD SWAP5 POP POP POP PUSH1 0x20 DUP2 ADD SWAP1 POP PUSH2 0x6D1 JUMP JUMPDEST POP POP POP SWAP4 SWAP3 POP POP POP JUMP JUMPDEST PUSH1 0x0 DUP3 PUSH1 0x1F DUP4 ADD SLT PUSH2 0x735 JUMPI PUSH2 0x734 PUSH2 0x361 JUMP JUMPDEST JUMPDEST DUP2 CALLDATALOAD PUSH2 0x745 DUP5 DUP3 PUSH1 0x20 DUP7 ADD PUSH2 0x699 JUMP JUMPDEST SWAP2 POP POP SWAP3 SWAP2 POP POP JUMP JUMPDEST PUSH1 0x0 DUP1 PUSH1 0x0 PUSH1 0x60 DUP5 DUP7 SUB SLT ISZERO PUSH2 0x767 JUMPI PUSH2 0x766 PUSH2 0x357 JUMP JUMPDEST JUMPDEST PUSH1 0x0 DUP5 ADD CALLDATALOAD PUSH8 0xFFFFFFFFFFFFFFFF DUP2 GT ISZERO PUSH2 0x785 JUMPI PUSH2 0x784 PUSH2 0x35C JUMP JUMPDEST JUMPDEST PUSH2 0x791 DUP7 DUP3 DUP8 ADD PUSH2 0x720 JUMP JUMPDEST SWAP4 POP POP PUSH1 0x20 DUP5 ADD CALLDATALOAD PUSH8 0xFFFFFFFFFFFFFFFF DUP2 GT ISZERO PUSH2 0x7B2 JUMPI PUSH2 0x7B1 PUSH2 0x35C JUMP JUMPDEST JUMPDEST PUSH2 0x7BE DUP7 DUP3 DUP8 ADD PUSH2 0x4B4 JUMP JUMPDEST SWAP3 POP POP PUSH1 0x40 PUSH2 0x7CF DUP7 DUP3 DUP8 ADD PUSH2 0x503 JUMP JUMPDEST SWAP2 POP POP SWAP3 POP SWAP3 POP SWAP3 JUMP JUMPDEST PUSH1 0x0 DUP1 PUSH1 0x40 DUP4 DUP6 SUB SLT ISZERO PUSH2 0x7F0 JUMPI PUSH2 0x7EF PUSH2 0x357 JUMP JUMPDEST JUMPDEST PUSH1 0x0 DUP4 ADD CALLDATALOAD PUSH8 0xFFFFFFFFFFFFFFFF DUP2 GT ISZERO PUSH2 0x80E JUMPI PUSH2 0x80D PUSH2 0x35C JUMP JUMPDEST JUMPDEST PUSH2 0x81A DUP6 DUP3 DUP7 ADD PUSH2 0x4B4 JUMP JUMPDEST SWAP3 POP POP PUSH1 0x20 PUSH2 0x82B DUP6 DUP3 DUP7 ADD PUSH2 0x503 JUMP JUMPDEST SWAP2 POP POP SWAP3 POP SWAP3 SWAP1 POP JUMP JUMPDEST PUSH32 0x4E487B7100000000000000000000000000000000000000000000000000000000 PUSH1 0x0 MSTORE PUSH1 0x32 PUSH1 0x4 MSTORE PUSH1 0x24 PUSH1 0x0 REVERT JUMPDEST PUSH32 0x4E487B7100000000000000000000000000000000000000000000000000000000 PUSH1 0x0 MSTORE PUSH1 0x11 PUSH1 0x4 MSTORE PUSH1 0x24 PUSH1 0x0 REVERT JUMPDEST PUSH1 0x0 PUSH2 0x89E DUP3 PUSH2 0x4E2 JUMP JUMPDEST SWAP2 POP PUSH2 0x8A9 DUP4 PUSH2 0x4E2 JUMP JUMPDEST SWAP3 POP DUP3 DUP3 ADD SWAP1 POP DUP1 DUP3 GT ISZERO PUSH2 0x8C1 JUMPI PUSH2 0x8C0 PUSH2 0x864 JUMP JUMPDEST JUMPDEST SWAP3 SWAP2 POP POP JUMP JUMPDEST PUSH1 0x0 DUP2 MLOAD SWAP1 POP SWAP2 SWAP1 POP JUMP JUMPDEST PUSH32 0x4E487B7100000000000000000000000000000000000000000000000000000000 PUSH1 0x0 MSTORE PUSH1 0x22 PUSH1 0x4 MSTORE PUSH1 0x24 PUSH1 0x0 REVERT JUMPDEST PUSH1 0x0 PUSH1 0x2 DUP3 DIV SWAP1 POP PUSH1 0x1 DUP3 AND DUP1 PUSH2 0x919 JUMPI PUSH1 0x7F DUP3 AND SWAP2 POP JUMPDEST PUSH1 0x20 DUP3 LT DUP2 SUB PUSH2 0x92C JUMPI PUSH2 0x92B PUSH2 0x8D2 JUMP JUMPDEST JUMPDEST POP SWAP2 SWAP1 POP JUMP JUMPDEST PUSH1 0x0 DUP2 SWAP1 POP DUP2 PUSH1 0x0 MSTORE PUSH1 0x20 PUSH1 0x0 KECCAK256 SWAP1 POP SWAP2 SWAP1 POP JUMP JUMPDEST PUSH1 0x0 PUSH1 0x20 PUSH1 0x1F DUP4 ADD DIV SWAP1 POP SWAP2 SWAP1 POP JUMP JUMPDEST PUSH1 0x0 DUP3 DUP3 SHL SWAP1 POP SWAP3 SWAP2 POP POP JUMP JUMPDEST PUSH1 0x0 PUSH1 0x8 DUP4 MUL PUSH2 0x994 PUSH32 0xFFFFFFFFFFFFFFFFFFFFFFFFFFFFFFFFFFFFFFFFFFFFFFFFFFFFFFFFFFFFFFFF DUP3 PUSH2 0x957 JUMP JUMPDEST PUSH2 0x99E DUP7 DUP4 PUSH2 0x957 JUMP JUMPDEST SWAP6 POP DUP1 NOT DUP5 AND SWAP4 POP DUP1 DUP7 AND DUP5 OR SWAP3 POP POP POP SWAP4 SWAP3 POP POP POP JUMP JUMPDEST PUSH1 0x0 DUP2 SWAP1 POP SWAP2 SWAP1 POP JUMP JUMPDEST PUSH1 0x0 PUSH2 0x9DB PUSH2 0x9D6 PUSH2 0x9D1 DUP5 PUSH2 0x4E2 JUMP JUMPDEST PUSH2 0x9B6 JUMP JUMPDEST PUSH2 0x4E2 JUMP JUMPDEST SWAP1 POP SWAP2 SWAP1 POP JUMP JUMPDEST PUSH1 0x0 DUP2 SWAP1 POP SWAP2 SWAP1 POP JUMP JUMPDEST PUSH2 0x9F5 DUP4 PUSH2 0x9C0 JUMP JUMPDEST PUSH2 0xA09 PUSH2 0xA01 DUP3 PUSH2 0x9E2 JUMP JUMPDEST DUP5 DUP5 SLOAD PUSH2 0x964 JUMP JUMPDEST DUP3 SSTORE POP POP POP POP JUMP JUMPDEST PUSH1 0x0 SWAP1 JUMP JUMPDEST PUSH2 0xA1E PUSH2 0xA11 JUMP JUMPDEST PUSH2 0xA29 DUP2 DUP5 DUP5 PUSH2 0x9EC JUMP JUMPDEST POP POP POP JUMP JUMPDEST JUMPDEST DUP2 DUP2 LT ISZERO PUSH2 0xA4D JUMPI PUSH2 0xA42 PUSH1 0x0 DUP3 PUSH2 0xA16 JUMP JUMPDEST PUSH1 0x1 DUP2 ADD SWAP1 POP PUSH2 0xA2F JUMP JUMPDEST POP POP JUMP JUMPDEST PUSH1 0x1F DUP3 GT ISZERO PUSH2 0xA92 JUMPI PUSH2 0xA63 DUP2 PUSH2 0x932 JUMP JUMPDEST PUSH2 0xA6C DUP5 PUSH2 0x947 JUMP JUMPDEST DUP2 ADD PUSH1 0x20 DUP6 LT ISZERO PUSH2 0xA7B JUMPI DUP2 SWAP1 POP JUMPDEST PUSH2 0xA8F PUSH2 0xA87 DUP6 PUSH2 0x947 JUMP JUMPDEST DUP4 ADD DUP3 PUSH2 0xA2E JUMP JUMPDEST POP POP JUMPDEST POP POP POP JUMP JUMPDEST PUSH1 0x0 DUP3 DUP3 SHR SWAP1 POP SWAP3 SWAP2 POP POP JUMP JUMPDEST PUSH1 0x0 PUSH2 0xAB5 PUSH1 0x0 NOT DUP5 PUSH1 0x8 MUL PUSH2 0xA97 JUMP JUMPDEST NOT DUP1 DUP4 AND SWAP2 POP POP SWAP3 SWAP2 POP POP JUMP JUMPDEST PUSH1 0x0 PUSH2 0xACE DUP4 DUP4 PUSH2 0xAA4 JUMP JUMPDEST SWAP2 POP DUP3 PUSH1 0x2 MUL DUP3 OR SWAP1 POP SWAP3 SWAP2 POP POP JUMP JUMPDEST PUSH2 0xAE7 DUP3 PUSH2 0x8C7 JUMP JUMPDEST PUSH8 0xFFFFFFFFFFFFFFFF DUP2 GT ISZERO PUSH2 0xB00 JUMPI PUSH2 0xAFF PUSH2 0x377 JUMP JUMPDEST JUMPDEST PUSH2 0xB0A DUP3 SLOAD PUSH2 0x901 JUMP JUMPDEST PUSH2 0xB15 DUP3 DUP3 DUP6 PUSH2 0xA51 JUMP JUMPDEST PUSH1 0x0 PUSH1 0x20 SWAP1 POP PUSH1 0x1F DUP4 GT PUSH1 0x1 DUP2 EQ PUSH2 0xB48 JUMPI PUSH1 0x0 DUP5 ISZERO PUSH2 0xB36 JUMPI DUP3 DUP8 ADD MLOAD SWAP1 POP JUMPDEST PUSH2 0xB40 DUP6 DUP3 PUSH2 0xAC2 JUMP JUMPDEST DUP7 SSTORE POP PUSH2 0xBA8 JUMP JUMPDEST PUSH1 0x1F NOT DUP5 AND PUSH2 0xB56 DUP7 PUSH2 0x932 JUMP JUMPDEST PUSH1 0x0 JUMPDEST DUP3 DUP2 LT ISZERO PUSH2 0xB7E JUMPI DUP5 DUP10 ADD MLOAD DUP3 SSTORE PUSH1 0x1 DUP3 ADD SWAP2 POP PUSH1 0x20 DUP6 ADD SWAP5 POP PUSH1 0x20 DUP2 ADD SWAP1 POP PUSH2 0xB59 JUMP JUMPDEST DUP7 DUP4 LT ISZERO PUSH2 0xB9B JUMPI DUP5 DUP10 ADD MLOAD PUSH2 0xB97 PUSH1 0x1F DUP10 AND DUP3 PUSH2 0xAA4 JUMP JUMPDEST DUP4 SSTORE POP JUMPDEST PUSH1 0x1 PUSH1 0x2 DUP9 MUL ADD DUP9 SSTORE POP POP POP JUMPDEST POP POP POP POP POP POP JUMP JUMPDEST PUSH1 0x0 DUP2 MLOAD SWAP1 POP SWAP2 SWAP1 POP JUMP JUMPDEST PUSH1 0x0 DUP2 SWAP1 POP DUP2 PUSH1 0x0 MSTORE PUSH1 0x20 PUSH1 0x0 KECCAK256 SWAP1 POP SWAP2 SWAP1 POP JUMP JUMPDEST PUSH1 0x1F DUP3 GT ISZERO PUSH2 0xC11 JUMPI PUSH2 0xBE2 DUP2 PUSH2 0xBBB JUMP JUMPDEST PUSH2 0xBEB DUP5 PUSH2 0x947 JUMP JUMPDEST DUP2 ADD PUSH1 0x20 DUP6 LT ISZERO PUSH2 0xBFA JUMPI DUP2 SWAP1 POP JUMPDEST PUSH2 0xC0E PUSH2 0xC06 DUP6 PUSH2 0x947 JUMP JUMPDEST DUP4 ADD DUP3 PUSH2 0xA2E JUMP JUMPDEST POP POP JUMPDEST POP POP POP JUMP JUMPDEST PUSH2 0xC1F DUP3 PUSH2 0xBB0 JUMP JUMPDEST PUSH8 0xFFFFFFFFFFFFFFFF DUP2 GT ISZERO PUSH2 0xC38 JUMPI PUSH2 0xC37 PUSH2 0x377 JUMP JUMPDEST JUMPDEST PUSH2 0xC42 DUP3 SLOAD PUSH2 0x901 JUMP JUMPDEST PUSH2 0xC4D DUP3 DUP3 DUP6 PUSH2 0xBD0 JUMP JUMPDEST PUSH1 0x0 PUSH1 0x20 SWAP1 POP PUSH1 0x1F DUP4 GT PUSH1 0x1 DUP2 EQ PUSH2 0xC80 JUMPI PUSH1 0x0 DUP5 ISZERO PUSH2 0xC6E JUMPI DUP3 DUP8 ADD MLOAD SWAP1 POP JUMPDEST PUSH2 0xC78 DUP6 DUP3 PUSH2 0xAC2 JUMP JUMPDEST DUP7 SSTORE POP PUSH2 0xCE0 JUMP JUMPDEST PUSH1 0x1F NOT DUP5 AND PUSH2 0xC8E DUP7 PUSH2 0xBBB JUMP JUMPDEST PUSH1 0x0 JUMPDEST DUP3 DUP2 LT ISZERO PUSH2 0xCB6 JUMPI DUP5 DUP10 ADD MLOAD DUP3 SSTORE PUSH1 0x1 DUP3 ADD SWAP2 POP PUSH1 0x20 DUP6 ADD SWAP5 POP PUSH1 0x20 DUP2 ADD SWAP1 POP PUSH2 0xC91 JUMP JUMPDEST DUP7 DUP4 LT ISZERO PUSH2 0xCD3 JUMPI DUP5 DUP10 ADD MLOAD PUSH2 0xCCF PUSH1 0x1F DUP10 AND DUP3 PUSH2 0xAA4 JUMP JUMPDEST DUP4 SSTORE POP JUMPDEST PUSH1 0x1 PUSH1 0x2 DUP9 MUL ADD DUP9 SSTORE POP POP POP JUMPDEST POP POP POP POP POP POP JUMP JUMPDEST PUSH1 0x0 PUSH2 0xCF3 DUP3 PUSH2 0x4E2 JUMP JUMPDEST SWAP2 POP PUSH32 0xFFFFFFFFFFFFFFFFFFFFFFFFFFFFFFFFFFFFFFFFFFFFFFFFFFFFFFFFFFFFFFFF DUP3 SUB PUSH2 0xD25 JUMPI PUSH2 0xD24 PUSH2 0x864 JUMP JUMPDEST JUMPDEST PUSH1 0x1 DUP3 ADD SWAP1 POP SWAP2 SWAP1 POP JUMP JUMPDEST PUSH1 0x0 DUP3 DUP3 MSTORE PUSH1 0x20 DUP3 ADD SWAP1 POP SWAP3 SWAP2 POP POP JUMP JUMPDEST PUSH32 0x5265656E7472616E637947756172643A207265656E7472616E742063616C6C00 PUSH1 0x0 DUP3 ADD MSTORE POP JUMP JUMPDEST PUSH1 0x0 PUSH2 0xD77 PUSH1 0x1F DUP4 PUSH2 0xD30 JUMP JUMPDEST SWAP2 POP PUSH2 0xD82 DUP3 PUSH2 0xD41 JUMP JUMPDEST PUSH1 0x20 DUP3 ADD SWAP1 POP SWAP2 SWAP1 POP JUMP JUMPDEST PUSH1 0x0 PUSH1 0x20 DUP3 ADD SWAP1 POP DUP2 DUP2 SUB PUSH1 0x0 DUP4 ADD MSTORE PUSH2 0xDA6 DUP2 PUSH2 0xD6A JUMP JUMPDEST SWAP1 POP SWAP2 SWAP1 POP JUMP INVALID LOG2 PUSH5 0x6970667358 0x22 SLT KECCAK256 CHAINID 0xEB 0xDC MULMOD DUP16 PUSH29 0xBFC9EF097B8D2019D84C08F75AB1B586C522A001DCE72E9E6AE664736F PUSH13 0x63430008110033000000000000 "},"methodIdentifiers":{"createBrownies((string,string,uint256,uint256,bytes)[],string,uint256)":"a2756b2a","createOrganisation(string,uint256)":"c5802e3a"}},"storageLayout":{"storage":[{"astId":399,"contract":"contracts/brownie.sol:BrowniePoints","label":"_status","offset":0,"slot":"0","type":"t_uint256"},{"astId":2743,"contract":"contracts/brownie.sol:BrowniePoints","label":"brownieMaps","offset":0,"slot":"1","type":"t_mapping(t_address,t_mapping(t_uint256,t_struct(brownie)2736_storage))"},{"astId":2748,"contract":"contracts/brownie.sol:BrowniePoints","label":"organisationMaps","offset":0,"slot":"2","type":"t_mapping(t_address,t_struct(organisation)2725_storage)"},{"astId":2752,"contract":"contracts/brownie.sol:BrowniePoints","label":"brownieCounter","offset":0,"slot":"3","type":"t_mapping(t_address,t_uint256)"}],"types":{"t_address":{"encoding":"inplace","label":"address","numberOfBytes":"20"},"t_bytes_storage":{"encoding":"bytes","label":"bytes","numberOfBytes":"32"},"t_mapping(t_address,t_mapping(t_uint256,t_struct(brownie)2736_storage))":{"encoding":"mapping","key":"t_address","label":"mapping(address => mapping(uint256 => struct BrowniePoints.brownie))","numberOfBytes":"32","value":"t_mapping(t_uint256,t_struct(brownie)2736_storage)"},"t_mapping(t_address,t_struct(organisation)2725_storage)":{"encoding":"mapping","key":"t_address","label":"mapping(address => struct BrowniePoints.organisation)","numberOfBytes":"32","value":"t_struct(organisation)2725_storage"},"t_mapping(t_address,t_uint256)":{"encoding":"mapping","key":"t_address","label":"mapping(address => uint256)","numberOfBytes":"32","value":"t_uint256"},"t_mapping(t_uint256,t_struct(brownie)2736_storage)":{"encoding":"mapping","key":"t_uint256","label":"mapping(uint256 => struct BrowniePoints.brownie)","numberOfBytes":"32","value":"t_struct(brownie)2736_storage"},"t_string_storage":{"encoding":"bytes","label":"string","numberOfBytes":"32"},"t_struct(brownie)2736_storage":{"encoding":"inplace","label":"struct BrowniePoints.brownie","members":[{"astId":2727,"contract":"contracts/brownie.sol:BrowniePoints","label":"header","offset":0,"slot":"0","type":"t_string_storage"},{"astId":2729,"contract":"contracts/brownie.sol:BrowniePoints","label":"keyword","offset":0,"slot":"1","type":"t_string_storage"},{"astId":2731,"contract":"contracts/brownie.sol:BrowniePoints","label":"x","offset":0,"slot":"2","type":"t_uint256"},{"astId":2733,"contract":"contracts/brownie.sol:BrowniePoints","label":"y","offset":0,"slot":"3","type":"t_uint256"},{"astId":2735,"contract":"contracts/brownie.sol:BrowniePoints","label":"intent","offset":0,"slot":"4","type":"t_bytes_storage"}],"numberOfBytes":"160"},"t_struct(organisation)2725_storage":{"encoding":"inplace","label":"struct BrowniePoints.organisation","members":[{"astId":2722,"contract":"contracts/brownie.sol:BrowniePoints","label":"id","offset":0,"slot":"0","type":"t_uint256"},{"astId":2724,"contract":"contracts/brownie.sol:BrowniePoints","label":"uri","offset":0,"slot":"1","type":"t_string_storage"}],"numberOfBytes":"64"},"t_uint256":{"encoding":"inplace","label":"uint256","numberOfBytes":"32"}}},"userdoc":{"kind":"user","methods":{},"version":1}}}}